:100000000C9411030C9439030C9439030C943903A8
:100010000C9439030C9439030C9439030C94390370
:100020000C9439030C9439030C9439030C94390360
:100030000C9439030C9439030C9439030C94390350
:100040000C94360B0C9439030C9439030C9439033B
:100050000C9439030C9439030C9439030C94390330
:100060000C9439030C9439030000000800020100CD
:10007000000304070000000000000000486F7764E0
:1000800079000001020304050608090A0B0D0E1091
:1000900012131517191B1D202225272A2D3033373F
:1000A0003A3E4145494D52565B5F64696E74797FB3
:1000B000858B91979DA4ABB2B9C0C7CFD6DEE6EED3
:1000C000F7FF000102030507090B0E1114181D228A
:1000D000282E363D464F59646F7C8997A6B6C7D9FE
:1000E000EBFF00000000003E5B4F5B3E3E6B4F6B42
:1000F0003E1C3E7C3E1C183C7E3C181C577D571C09
:100100001C5E7F5E1C00183C1800FFE7C3E7FF0081
:1001100018241800FFE7DBE7FF30483A060E2629CF
:10012000792926407F050507407F05253F5A3CE792
:100130003C5A7F3E1C1C08081C1C3E7F14227F2258
:10014000145F5F005F5F06097F017F006689956A23
:10015000606060606094A2FFA29408047E040810AE
:10016000207E201008082A1C08081C2A08081E10D7
:100170001010100C1E0C1E0C30383E3830060E3E8F
:100180000E06000000000000005F000000070007EE
:1001900000147F147F14242A7F2A12231308646218
:1001A00036495620500008070300001C2241000079
:1001B00041221C002A1C7F1C2A08083E08080080D7
:1001C000703000080808080800006060002010086F
:1001D00004023E5149453E00427F40007249494970
:1001E000462141494D331814127F102745454539A2
:1001F0003C4A4949314121110907364949493646A6
:100200004949291E00001400000040340000000885
:100210001422411414141414004122140802015928
:1002200009063E415D594E7C1211127C7F494949B5
:10023000363E414141227F4141413E7F494949414A
:100240007F090909013E414151737F0808087F0079
:10025000417F41002040413F017F081422417F40FF
:100260004040407F021C027F7F0408107F3E4141D6
:10027000413E7F090909063E4151215E7F09192946
:1002800046264949493203017F01033F4040403F30
:100290001F2040201F3F4038403F63140814630371
:1002A000047804036159494D43007F4141410204F0
:1002B000081020004141417F0402010204404040F7
:1002C0004040000307080020545478407F284444ED
:1002D000383844444428384444287F385454541807
:1002E00000087E090218A4A49C787F080404780002
:1002F000447D40002040403D007F102844000041E4
:100300007F40007C047804787C08040478384444F6
:100310004438FC1824241818242418FC7C080404ED
:1003200008485454542404043F44243C4040207C56
:100330001C2040201C3C4030403C44281028444CA9
:100340009090907C4464544C440008364100000076
:10035000770000004136080002010204023C262317
:10036000263C1EA1A161123A4040207A38545455CF
:100370005921555579412254547842215554784099
:1003800020545579400C1E52721239555555593921
:100390005454545939555454580000457C41000276
:1003A000457D420001457C407D1211127DF02825DB
:1003B00028F07C545545002054547C547C0A097F15
:1003C0004932494949323A4444443A324A48483029
:1003D0003A4141217A3A42402078009DA0A07D3DDB
:1003E0004242423D3D4040403D3C24FF2424487E63
:1003F0004943662B2FFC2F2BFF0929F620C0887E4E
:10040000090320545479410000447D413048484A52
:1004100032384040227A007A0A0A727D0D19317D05
:100420002629292F28262929292630484D402038D9
:100430000808080808080808382F10C8ACBA2F1098
:100440002834FA00007B000008142A142222142AFF
:1004500014085500550055AA55AA55AAFF55FF5531
:10046000FF000000FF00101010FF00141414FF0024
:100470001010FF00FF1010F010F0141414FC001402
:1004800014F700FF0000FF00FF1414F404FC141420
:1004900017101F10101F101F1414141F001010101D
:1004A000F0000000001F101010101F10101010F0AE
:1004B00010000000FF101010101010101010FF108E
:1004C000000000FF140000FF00FF00001F101700D5
:1004D00000FC04F414141710171414F404F40000AE
:1004E000FF00F714141414141414F700F714141460
:1004F000171410101F101F141414F4141010F010FF
:10050000F000001F101F0000001F14000000FC146A
:100510000000F010F01010FF10FF141414FF14105E
:1005200010101F00000000F010FFFFFFFFFFF0F0B1
:10053000F0F0F0FFFFFF0000000000FFFF0F0F0FC3
:100540000F0F3844443844FC4A4A4A347E020206BB
:1005500006027E027E0263554941633844443C04EE
:10056000407E201E2006027E020299A5E7A5991C66
:100570002A492A1C4C7201724C304A4D4D30304889
:10058000784830BC625A463D3E494949007E0101E7
:10059000017E2A2A2A2A2A44445F444440514A447C
:1005A0004040444A51400000FF0103E080FF00004A
:1005B00008086B6B083612362436060F090F060042
:1005C0000018180000001010003040FF0101001F4B
:1005D00001011E00191D1712003C3C3C3C000000AC
:1005E000000000000000250028002B000000000093
:1005F000240027002A000404040404040404020262
:100600000202020203030303030301020408102091
:100610004080010204081020010204081020CC0DC3
:10062000610E11241FBECFEFD8E0DEBFCDBF11E0B9
:10063000A0E0B1E0EEEFFFE102C005900D92AE3513
:10064000B107D9F721E0AEE5B1E001C01D92AD3AA6
:10065000B207E1F713E0C0E1D3E004C02197FE0147
:100660000E94EC0FCF30D107C9F70E94800B0C9489
:100670008F0E0C94000029E0215019F1E0919901AE
:10068000F0919A0190919701308187FF02C0932BDE
:1006900002C0909593239083E0919B01F0919C017F
:1006A000308190919801932B9083E0919B01F09180
:1006B0009C01308190919801909593239083880FAD
:1006C000DBCF0895CF93DF9390E0FC01E65FF94F15
:1006D0002491FC01EA50FA4F8491882361F190E063
:1006E000880F991FFC01E451FA4FC591D491FC0188
:1006F000EE51FA4FA591B491611109C09FB7F894DA
:100700008881209582238883EC912E230BC0623050
:1007100061F49FB7F8943881822F80958323888372
:10072000EC912E2B2C939FBF06C08FB7F894E881D5
:100730002E2B28838FBFDF91CF9108950895FC0160
:100740006370658B8481958126813781613039F0B2
:10075000633029F091878087338722870895318716
:1007600020879387828708952F923F924F925F92BE
:100770006F927F928F929F92AF92BF92CF92DF92B1
:10078000EF92FF920F931F93CF93DF93CDB7DEB716
:100790006C970FB6F894DEBF0FBECDBF9C8F8B8FCA
:1007A0005B011A011F830E833701C982DC01589651
:1007B0004D915C9159974115510509F0E5C0189686
:1007C0008D919C911997681779070CF0CAC11A96F8
:1007D0008D919C911B97281639060CF0C2C18C2C68
:1007E000912CFB0136E0C39EE00DF11D1124FB8727
:1007F000EA871E161F060CF0B4C1C40133E0880F4F
:10080000991F3A95E1F79D878C87820D931D1816E5
:1008100019060CF0A6C157968C91811103C0203B9C
:1008200008F02F5FAB8DBC8DED91FC911197028488
:10083000F385E02DCD012A8F09952A8DB5E02B9FF8
:1008400090011124F5013596FF87EE87BB82AA82BD
:100850002501A9014A195B09598B488BC1010896EA
:100860009B8B8A8BE889F989E40DF51DEE51FF4FCA
:100870009491988761013D822C82A885A0FF13C0C6
:10088000AB8DBC8DED91FC91B981B13031F4048414
:10089000F585E02D2E813F8116C00684F785E02D79
:1008A000EE80FF801AC0EE81FF816E167F06F1F0A8
:1008B000AB8DBC8DED91FC91B981B13051F40484C4
:1008C000F585E02D9301A601B2018B8D9C8D0995D4
:1008D0000DC00684F785E02D7301840194014C81DD
:1008E0005D816A817B818B8D9C8D0995E885E6957C
:1008F000E887FFEFCF1ADF0A2C813D81280D391DD3
:100900003D832C834A895B89C416D50609F0B5CF8F
:100910005FEF451A550A8A819B81880D991D9B833B
:100920008A83AE85BF854A165B0609F09BCFEE81B0
:10093000FF816E167F0609F4F2C0EB8DFC8DA0815D
:10094000B181F981F13079F4B5016B5F7F4F509639
:10095000ED91FC915197830128E030E0A1018B8D4E
:100960009C8D0995DCC06A857B85681979091E967E
:10097000ED91FC911F9773010C851D859401A101D8
:100980008B8D9C8D0995CBC0FA013496949132974A
:1009900065917491291BCB01B7E02B9F800D911DB0
:1009A0001124FA01259134913B8B2A8BFC0145914E
:1009B00054915B834A83FC013296C49031965491E2
:1009C0005E87329614913196D4908981823058F0A6
:1009D000612E012E000C7708AD2D0D2C000CBB0BE9
:1009E000B987A88704C019861886612C712CAB8D35
:1009F000BC8DED91FC9111970284F385E02DCD0122
:100A00000995B9818B2E912C689CC001699C900D31
:100A1000789C900D1124FC01EA0DFB1DFD87EC87ED
:100A20001C82712C612CE12F110FFF0B95012E0FF1
:100A30003F1F3B872A87AC0CB11CA5014E0F5F1FDF
:100A40005F8B4E8BC1018D0D911DD7FC9A95998FAF
:100A5000888F4E85641608F062C0862D90E0488528
:100A60005985480F591F489D9001499D300D589D4B
:100A7000300D1124D901A20DB31DB98BA88BAA8406
:100A8000BB844C845D84DC80BA85DB1AE88DF98DEB
:100A9000E80FF91FFD8BEC8B8D2D8A0D2E893F8978
:100AA000A216B306B9F1877061F48A819B81019621
:100AB000EA89FB89AA81BB81EA0FFB1F74909B83A3
:100AC0008A8377FE20C0AB8DBC8DED91FC91B981FE
:100AD000B13061F40484F585E02D2E813F814C898D
:100AE0005D89B5018B8D9C8D09950DC00684F785B8
:100AF000E02DEE80FF808401940148895989B2017C
:100B00008B8D9C8D0995770CEFEFAE1ABE0A480CC1
:100B1000591CC2CF3C813C0D3C8363949ACFAB8D72
:100B2000BC8DED91FC9111970688F789E02DCD01E0
:100B30006C960FB6F894DEBF0FBECDBFDF91CF919C
:100B40001F910F91FF90EF90DF90CF90BF90AF90EB
:100B50009F908F907F906F905F904F903F902F90DD
:100B600009946C960FB6F894DEBF0FBECDBFDF912F
:100B7000CF911F910F91FF90EF90DF90CF90BF909A
:100B8000AF909F908F907F906F905F904F903F902D
:100B90002F900895AF92BF92CF92EF92FF920F9352
:100BA0001F93CF93DF93EC01262F888D998D0097AB
:100BB00009F040C06A3059F41D861C862C898E8548
:100BC0009F8538E0239F800D911D112441C06D3019
:100BD00009F4AAC08E898823C1F03C898C859D8543
:100BE00046E0349F800D911D112448855985481792
:100BF00059075CF41D861C868E859F8548E0349FCE
:100C0000800D911D11249F878E87EA88FB880889B3
:100C100019894E855F856C857D85CC88CE010E94C3
:100C2000B4032C898C859D8536E0239F800D911D12
:100C3000112442C06A3079F41D861C862C89FC017F
:100C40003696E4918E859F852E9F800D911D1124EF
:100C50009F878E8769C06D3009F466C0FC013496A9
:100C60003491631708F460C03196E491E61708F4F4
:100C70005BC0FC013296A590B490462F50E0431B18
:100C8000510937E0349FB001359F700D1124A60E35
:100C9000B71EF501329634913196E491332311F069
:100CA000E1110DC0F5013496E4912C898C859D8568
:100CB000E29F800D911D11249D878C8735C0F50121
:100CC000359644915E89552311F16C89E32FF0E04C
:100CD000E40FF11D47FDFA956E9FD0016F9FB00D97
:100CE00011244C855D854A0F5B1FE885F985E41763
:100CF000F5076CF41D861C86FC013696E4918E8502
:100D00009F856E9F800D911D11249F878E87EA8895
:100D1000FB88088919894E855F856C857D85CC881F
:100D2000CE010E94B403BECF81E090E0DF91CF916D
:100D30001F910F91FF90EF90CF90BF90AF900895CB
:100D40006F927F928F929F92AF92BF92CF92DF92DB
:100D5000EF92FF920F931F93CF93DF93EC014B0120
:100D60005A0169013801E881F9810284F385E02D97
:100D70000995E881F9810288F389E02D87019601C0
:100D8000A501B401CE010995E881F981A501460DBF
:100D9000571D415051090288F389E02D9601B40195
:100DA000CE010995E881F9810088F189E02D930150
:100DB000A501B401CE010995E881F981C80CD91CBF
:100DC000B601615071090088F189E02D9301A501F8
:100DD000CE010995E881F9810688F789E02DCE01D9
:100DE000DF91CF911F910F91FF90EF90DF90CF9007
:100DF000BF90AF909F908F907F906F900994CF920B
:100E0000DF92EF92FF920F931F93CF93DF9300D067
:100E100000D000D0CDB7DEB76C01DC01ED91FC91C4
:100E20006217730789F4041715072CF4942F852F84
:100E3000A801092F182F041B150B98012F5F3F4F96
:100E4000048CF58DE02D12C04017510709F52617C7
:100E500037072CF4962F872FB901292F382F261BFF
:100E6000370B2F5F3F4F068CF78DE02D8701C601B2
:100E7000099526960FB6F894DEBF0FBECDBFDF9161
:100E8000CF911F910F91FF90EF90DF90CF90089539
:100E90000284F385E02D2D833E834B835C8369833D
:100EA0007A830995D601ED91FC910488F589E02DAE
:100EB0002D813E814B815C8169817A81C6010995D2
:100EC000D601ED91FC910688F789E02DC6012696A2
:100ED0000FB6F894DEBF0FBECDBFDF91CF911F914B
:100EE0000F91FF90EF90DF90CF900994EF92FF92D7
:100EF0000F931F93DC01ED91FC9111971A960D91C0
:100F00001C911B9718962D913C91199700A0F1A167
:100F1000E02D7B0140E050E060E070E009951F911A
:100F20000F91FF90EF9008954F925F926F927F9292
:100F30008F929F92AF92BF92CF92DF92EF92FF92E9
:100F40000F931F93CF93DF9300D0CDB7DEB76C0123
:100F50005A0139014801DC01ED91FC910284F385CD
:100F6000E02D69837A8309956981462E7A81572E0F
:100F7000640C751CD601ED91FC91461457046CF479
:100F80000088F189E02D87019401A501B201C60115
:100F90000995BFEF4B1A5B0AEDCF0688F789E02D64
:100FA000C6010F900F90DF91CF911F910F91FF908D
:100FB000EF90DF90CF90BF90AF909F908F907F90F9
:100FC0006F905F904F900994AF92BF92CF92DF9253
:100FD000EF92FF920F931F93CF93DF9300D000D037
:100FE000CDB7DEB75C016901DC01ED91FC910284B3
:100FF000F385E02D4B835C8369837A830995D50162
:10100000ED91FC9169817A819B012C0D3D1D215050
:1010100031090488F589E02D78014B815C818A01D2
:10102000C5010995D501ED91FC910688F789E02D60
:10103000C5010F900F900F900F90DF91CF911F91EE
:101040000F91FF90EF90DF90CF90BF90AF900994F9
:10105000AF92BF92CF92DF92EF92FF920F931F93C6
:10106000CF93DF9300D000D0CDB7DEB75C0169012C
:10107000DC01ED91FC910284F385E02D4B835C83D0
:1010800069837A830995D501ED91FC914B815C814F
:10109000C40ED51EB1E0CB1AD1080488F589E02D25
:1010A0007801860169817A819B01C5010995D50185
:1010B000ED91FC910688F789E02DC5010F900F9006
:1010C0000F900F90DF91CF911F910F91FF90EF90B4
:1010D000DF90CF90BF90AF9009940895EF92FF9268
:1010E0000F931F93DC01ED91FC9100A0F1A1E02D85
:1010F00009951F910F91FF90EF9008950F931F9303
:10110000DC01ED91FC91068CF78DE02D09951F9186
:101110000F9108950F931F93DC01ED91FC91048CC6
:10112000F58DE02D09951F910F910895DC01ED914A
:10113000FC910084F185E02D099408952F923F924F
:101140004F925F926F927F928F929F92AF92BF92D7
:10115000CF92DF92EF92FF920F931F93CF93DF9383
:1011600000D01F92CDB7DEB74C017B836A836A0142
:10117000590117019801241B350B37FF03C0319526
:1011800021953109C5014A815B81841B950B97FF2D
:1011900003C091958195910951E059838217930776
:1011A00014F019820BC09A2D8B2D5801092F182F7E
:1011B0009A818B81DB82CA82C92ED82E8A819B813B
:1011C000A816B9065CF49C2D8D2D6801092F182FE7
:1011D0009A818B81BB82AA82A92EB82E2501AA8171
:1011E000BB814A1A5B0A38016C187D0877FE03C080
:1011F000719461947108720157FE03C0BFEFEB1A3E
:10120000FB0AF594E794C016D1061CF00FEF1FEF10
:101210001FC001E010E01CC0D401ED91FC91B98128
:101220000484F585E02D9101BB23C1F04A815B81E7
:10123000B601C4010995E618F708F7FE04C0C00E10
:10124000D11EE40CF51CEA81FB813196FB83EA8315
:101250004A815B81A416B506FCF604C0A6016A812A
:101260007B81E7CF0F900F900F90DF91CF911F916F
:101270000F91FF90EF90DF90CF90BF90AF909F9035
:101280008F907F906F905F904F903F902F90089538
:10129000FC01EF2FFF27E695E695E695EE53FF4F0D
:1012A0002491FC0135E0F695E7953A95E1F7EF7367
:1012B000FF27EE57FF4F64918F719927FC01EE5382
:1012C000FF4FE491862F90E0A0E0B0E0BA2FA92F65
:1012D000982F8827A22BBC01CD016E2B0895EF9289
:1012E000FF920F931F93CF93DF93EC01CB012DA9B6
:1012F000222321F069A97AA98BA902C00E9448097A
:10130000EA8CFB8CE0E0F0E040E050E04E155F0539
:10131000F1F02A8D3B8D42175307A8F42F8D38A189
:101320002E0F3F1F99A18901090F111DD8018C9320
:101330009AA18901090F111DD8017C939BA1290F46
:10134000311DD9016C934F5F5F4F3396DFCFDF9133
:10135000CF911F910F91FF90EF9008954F925F9260
:101360006F927F928F929F92AF92BF92CF92DF92B5
:10137000EF92FF920F931F93CF93DF93EC018B01BA
:101380007A01590177FD0BC157FD09C188859985FF
:10139000681779070CF003C18A859B8548175907A0
:1013A0000CF0FDC08D89823061F08330C9F081304E
:1013B000F1F48C819D810197841B950B7B018C013D
:1013C00016C08C819D8101979C01261B370B8901DA
:1013D0008E819F810197FC01E41BF50B7F0107C003
:1013E0008E819F810197861B970B8A017C01EFA557
:1013F000F8A9309739F0B701C80109958C01C12CC3
:10140000D12CA4C04AA5F42FF3707F2E6DA46620C2
:1014100009F45EC04BA4842C912CC801B4010E9435
:10142000C40F6B015CA4252D30E0C701B9010E94F7
:10143000C40FFB01C89CC001C99C900DD89C900DA5
:101440001124081B190B629FC001639F900D729FAE
:10145000900D1124E81AF90A45FF07C0862D90E087
:1014600001979C012C193D09690144FF05C0EEA5B7
:10147000F0E03197E61BF70B46FD08C0262D30E063
:101480009E2F8F2FF601C92ED82E03C06EA4262DB5
:1014900030E047FF09C0C0FE07C083E07826E09532
:1014A000F0958FEFC81AD80A2C9DC0012D9D900D84
:1014B0003C9D900D1124E80FF91F549C200111242C
:1014C0004E9E60014F9ED00C5E9ED00C112402C037
:1014D000C12CD12C9801C70171FE08C06BA570E02A
:1014E00061507109FB01E01BF10B9F0170FE05C00B
:1014F0008CA590E001978E199F0942FD08C06BA54D
:1015000070E0E82F592FC9012E2F352F02C06CA58E
:1015100070E043FF12C020FF10C0809590958901B4
:101520000F5F1F4F069F9001079F300D169F300DD4
:1015300011248C01020F131F09C0629F8001639F59
:10154000100D729F100D1124080F191F8DA98823EB
:1015500021F069A97AA98BA903C0C5010E94480995
:10156000C00ED11E2A8D3B8DC216D306C0F4860153
:10157000000F111FC00ED11E0F8D18A1C00ED11E5D
:1015800099A1F601E90FF11D80838AA1F601E80F08
:10159000F11D70838BA1F601E80FF11D6083DF91CF
:1015A000CF911F910F91FF90EF90DF90CF90BF9060
:1015B000AF909F908F907F906F905F904F90089525
:1015C000CF92DF92EF92FF920F931F93CF93DF930F
:1015D0006C017A018B01C0E0D0E0CE15DF0589F007
:1015E000D8016D918D01D601ED91FC910190F081B2
:1015F000E02DC6010995892B11F47E0102C02196C8
:10160000ECCFC701DF91CF911F910F91FF90EF9029
:10161000DF90CF9008953FB7F89480916401909146
:101620006501A0916601B091670126B5A89B05C030
:101630002F3F19F00196A11DB11D3FBFBA2FA92F51
:10164000982F8827820F911DA11DB11DBC01CD01CE
:1016500042E0660F771F881F991F4A95D1F70895BA
:10166000089580E090E008950E94BF0F1F920F92AE
:101670000FB60F9211242F933F938F939F93AF93A5
:10168000BF938091600190916101A0916201B0913E
:10169000630130915F0123E0230F2D3720F4019681
:1016A000A11DB11D05C026E8230F0296A11DB11D85
:1016B00020935F018093600190936101A093620188
:1016C000B09363018091640190916501A0916601DE
:1016D000B09167010196A11DB11D809364019093A3
:1016E0006501A0936601B0936701BF91AF919F918F
:1016F0008F913F912F910F900FBE0F901F901895D3
:10170000789484B5826084BD84B5816084BD85B5DC
:10171000826085BD85B5816085BD80916E008160E8
:1017200080936E001092810080918100826080938E
:101730008100809181008160809381008091800090
:101740008160809380008091B10084608093B100BB
:101750008091B00081608093B00080917A008460B5
:1017600080937A0080917A00826080937A008091E1
:101770007A00816080937A0080917A0080688093FB
:101780007A001092C10080918F018F3F09F07FC0D5
:10179000CFB7F89480916801811166C080E096E02F
:1017A000FC01249144E156E0FA01649130E0220FFB
:1017B000331F24513A4FF901A591B4912C91622322
:1017C00009F040C0E2E7F0E02491FA014491FC0105
:1017D00094919923B9F1222339F1233091F038F40F
:1017E0002130A9F0223001F584B58F7D12C0273059
:1017F00091F02830A1F02430B9F4809180008F7DE1
:1018000003C0809180008F77809380000DC084B5E5
:101810008F7784BD09C08091B0008F7703C080911D
:10182000B0008F7D8093B000E92FF0E0EE0FFF1F36
:10183000EE51FA4FA591B4918FB7F8949C91492B32
:101840004C938FBF61E08AE00E9462038CB5806197
:101850008CBD8CB580648CBD61E08DE00E9462031C
:1018600061E08BE00E946203809168018F5F80934A
:101870006801CFBF8CB58C7F8CBD8DB581608DBD6F
:101880008CB58F7D8CBD8CB5837F8CBD46C061E0EF
:101890000E94620361E0809190010E946203809146
:1018A0008F0190E0FC01EA50FA4FE491F0E0EE0F76
:1018B000FF1FEE51FA4FA591B491B0939A01A093F6
:1018C00099012091900130E0F901EA50FA4FE4913A
:1018D000F0E0EE0FFF1FEE51FA4F459154915093F7
:1018E0009C0140939B01FC01E65FF94F849180933A
:1018F0009701F901E65FF94FE491E0939801EC91CB
:1019000080958E238C93E0919B01F0919C019081B6
:10191000809198018095892380831092890189E2C2
:10192000809391018091690190916A019093860161
:10193000809385019093840180938301DD24DA9460
:10194000E0E0EE2EE0E0FE2E60E070E083E791E064
:101950000E946F09809171019091720190938001B2
:1019600080937F011092820110928101CCE7D0E038
:10197000FE01649161110DC080917101909172011D
:10198000019790937201809371018C3D9F4FD4F524
:101990000EC0E0917301F09174010190F081E02D8F
:1019A00083E791E009952196892B11F7E5CF809186
:1019B0007B0190917C0190937201809371018091E1
:1019C0006F01909170010196833091052CF49093F2
:1019D000700180936F0104C01092700110926F012A
:1019E000E0916F01F0917001EE0FFF1FE759FE4F7C
:1019F00080819181909386018093850190938401E9
:101A000080938301C0919201D0919301209751F46A
:101A10000E940B0B2B013C0164E6862E912CA12C1D
:101A2000B12C9AC000918D0110918E01B09091015E
:101A300020918F01C8012F3F09F03DC023E01EBC5B
:101A400000000DB407FEFDCF3EB52150C1F71EBC0E
:101A50000DB407FEFDCFDEBCFE0123E0BB2031F05C
:101A600040814B9DA0011124352F01C030810DB460
:101A700007FEFDCF3EBD215031962111EFCF2396B9
:101A80000150110929F70DB407FEFDCF20E00F9694
:101A900054E0969587955A95E1F7422F50E0481704
:101AA000590708F0B5CFDEBC00000DB407FEFDCF2E
:101AB0003EB52F5FF2CF80E00E943B0380E00E94A2
:101AC0003B0380E00E943B0380E00E943B03809147
:101AD0009101882309F18FEF0E943B034E01239669
:101AE000F40181914F018B9DC0011124892F0E9427
:101AF0003B038C169D06A1F70150110961F7C0E068
:101B000011C0F50181915F010E943B03AC16BD0637
:101B1000C1F70150110999F38FEF0E943B035E0159
:101B20002396EFCF2C2F30E080918D0190918E0184
:101B30000F9644E0969587954A95E1F7281739075F
:101B400008F066CF8FEF0E943B03CF5FEBCF81148D
:101B50009104A104B104C9F00E940B0BDC01CB017C
:101B600084199509A609B709883E9340A105B105D6
:101B700070F3F1E08F1A9108A108B10828EE420E27
:101B800023E0521E611C711CE2CFE114F10409F440
:101B9000DBCE0E940000D8CE109276011092750123
:101BA0008AE091E0909374018093730188E090E063
:101BB000909378018093770190937A0180937901D3
:101BC00090937C0180937B0190937E0180937D01B3
:101BD000109288011092800110927F011092820170
:101BE0001092810181E0809387012FEF3FEF3093C6
:101BF0008601209385013093840120938301809393
:101C0000890110928A0110928C0110928B0194E04C
:101C100090938F0195E090939001109291018093A1
:101C2000940182E0809395011092960180EC90E0FF
:101C30000E94920E9093930180939201009761F01D
:101C400020E430E030938E0120938D0120ECFC01E4
:101C500011922A95E9F704C010928E0110928D011D
:101C600086E391E0909374018093730186E0809302
:101C70009D0188E080939E0180939F011092A001B6
:101C80001092A1011092A3011092A2011092A8013A
:101C900080E098EF90936A018093690180EE97E06D
:101CA00090936C0180936B018FE190E090936E01B3
:101CB00080936D0188E090E09093720180937101B0
:101CC000089586E391E0909374018093730180916D
:101CD000920190919301009711F00E94270F80913B
:101CE0008F018F3FA1F49FB7F894809168018823FA
:101CF00019F081508093680180916801811105C0BD
:101D00008CB58F7B8CBD10925E019FBF089560E003
:101D10000E94620360E0809190010C946203F89449
:101D20000C94F20FCF93DF938230910510F482E090
:101D300090E0E091AB01F091AC0120E030E0C0E038
:101D4000D0E0309711F14081518148175907C0F018
:101D50004817590761F482819381209719F09B837A
:101D60008A832BC09093AC018093AB0126C02115D0
:101D7000310519F04217530718F49A01BE01DF012B
:101D8000EF010280F381E02DDCCF2115310509F14F
:101D9000281B390B2430310590F412968D919C91BB
:101DA00013976115710521F0FB019383828304C0B1
:101DB0009093AC018093AB01FD01329644C0FD01CC
:101DC000E20FF31F81939193225031092D933C939D
:101DD0003AC02091A9013091AA01232B41F420910E
:101DE0000201309103013093AA012093A9012091AF
:101DF0000001309101012115310541F42DB73EB7A5
:101E00004091040150910501241B350BE091A9017B
:101E1000F091AA01E217F307A0F42E1B3F0B28173D
:101E2000390778F0AC014E5F5F4F2417350748F053
:101E30004E0F5F1F5093AA014093A9018193919384
:101E400002C0E0E0F0E0CF01DF91CF9108950F9361
:101E50001F93CF93DF93009709F48CC0FC01329756
:101E6000138212820091AB011091AC010115110592
:101E700081F420813181820F931F2091A90130913B
:101E8000AA012817390779F5F093AA01E093A9016F
:101E900071C0D80140E050E0AE17BF0750F4129671
:101EA0002D913C911397AD012115310509F1D9010F
:101EB000F3CF9D01DA013383228360817181860F24
:101EC000971F8217930769F4EC0128813981260F47
:101ED000371F2E5F3F4F318320838A819B819383FD
:101EE0008283452B29F4F093AC01E093AB0142C00F
:101EF0001396FC93EE931297ED01499159919E012F
:101F0000240F351FE217F30771F480819181840F4C
:101F1000951F029611969C938E93828193811396BE
:101F20009C938E931297E0E0F0E0D80112968D9189
:101F30009C911397009719F0F8018C01F6CF8D91C1
:101F40009C9198012E5F3F4F820F931F2091A90112
:101F50003091AA012817390769F4309729F41092B3
:101F6000AC011092AB0102C0138212821093AA013D
:101F70000093A901DF91CF911F910F91089581E006
:101F800090E0F8940C94F20F97FB072E16F400944F
:101F900007D077FD09D00E94D80F07FC05D03EF48A
:101FA000909581959F4F0895709561957F4F089505
:101FB000AA1BBB1B51E107C0AA1FBB1FA617B7076F
:101FC00010F0A61BB70B881F991F5A95A9F780958B
:101FD0009095BC01CD010895EE0FFF1F0590F4917F
:101FE000E02D099413E0C0E1D3E004C0FE010E949B
:0E1FF000EC0F2196C131D107C9F7F894FFCF4D
:101FFE000000AD01800000000000CA05E00A310BB0
:10200E00300B340B9D0896086E088A087E089E08D1
:10201E006D089F039E032808E40794077607FF06C2
:10202E00A00600000000CA05E00A310B300BAE0915
:10203E009D0896086E088A087E089E086D089F0304
:0E204E009E032808E40794076F09FF06A0060A
:00000001FF
